:100000000C9470030C9498030C9498030C9498032C
:100010000C9498030C9498030C9498030C949803F4
:100020000C9498030C9498030C9448070C94B7070D
:100030000C9498030C9498030C9498030C949803D4
:100040000C9498030C9498030C9498030C949803C4
:100050000C9498030C9498030C9498030C94E9095D
:100060000C9498030C9498030C9498030C949803A4
:100070000C9498030C9498030C9498030C94980394
:100080000C9498030C9498030C9498030C94980384
:100090000C9498030C9498030C9498030C94980374
:1000A0000C9498030C9498030C949803000000009F
:1000B000003E5B4F5B3E3E6B4F6B3E1C3E7C3E1CEE
:1000C000183C7E3C181C577D571C1C5E7F5E1C0034
:1000D000183C1800FFE7C3E7FF0018241800FFE7EB
:1000E000DBE7FF30483A060E2629792926407F05AE
:1000F0000507407F05253F5A3CE73C5A7F3E1C1CC4
:1001000008081C1C3E7F14227F22145F5F005F5F83
:1001100006097F017F006689956A6060606060946F
:10012000A2FFA29408047E040810207E2010080874
:100130002A1C08081C2A08081E101010100C1E0C7F
:100140001E0C30383E3830060E3E0E060000000011
:100150000000005F00000007000700147F147F14F8
:10016000242A7F2A1223130864623649562050003D
:1001700008070300001C2241000041221C002A1C29
:100180007F1C2A08083E0808008070300008080814
:100190000808000060600020100804023E51494534
:1001A0003E00427F400072494949462141494D3352
:1001B0001814127F1027454545393C4A49493141B9
:1001C000211109073649494936464949291E000087
:1001D00014000000403400000008142241141414DC
:1001E0001414004122140802015909063E415D59C8
:1001F0004E7C1211127C7F494949363E41414122D1
:100200007F4141413E7F494949417F090909013EFA
:10021000414151737F0808087F00417F4100204021
:10022000413F017F081422417F404040407F021C33
:10023000027F7F0408107F3E4141413E7F0909094A
:10024000063E4151215E7F09192946264949493216
:1002500003017F01033F4040403F1F2040201F3FDC
:100260004038403F63140814630304780403615961
:10027000494D43007F4141410204081020004141A3
:10028000417F04020102044040404040000307084F
:100290000020545478407F2844443838444444284B
:1002A000384444287F385454541800087E090218F2
:1002B000A4A49C787F0804047800447D400020407A
:1002C000403D007F1028440000417F40007C0478BE
:1002D00004787C080404783844444438FC18242406
:1002E0001818242418FC7C08040408485454542486
:1002F00004043F44243C4040207C1C2040201C3C03
:100300004030403C44281028444C9090907C4464F9
:10031000544C44000836410000007700000041368C
:10032000080002010204023C2623263C1EA1A16112
:10033000123A4040207A3854545559215555794144
:100340002154547841215554784020545579400C1B
:100350001E527212395555555939545454593955FC
:100360005454580000457C410002457D420001453F
:100370007C40F0292429F0F0282528F07C545545AC
:10038000002054547C547C0A097F4932494949323F
:100390003248484832324A4848303A4141217A3A54
:1003A00042402078009DA0A07D39444444393D401E
:1003B00040403D3C24FF2424487E4943662B2FFCCB
:1003C0002F2BFF0929F620C0887E09032054547979
:1003D000410000447D413048484A32384040227A4A
:1003E000007A0A0A727D0D19317D2629292F2826C7
:1003F0002929292630484D402038080808080808CF
:100400000808382F10C8ACBA2F102834FA00007B27
:10041000000008142A142222142A1408950022002D
:1004200095AA005500AAAA55AA55AA000000FF00E7
:10043000101010FF00141414FF001010FF00FF1024
:1004400010F010F0141414FC001414F700FF000056
:10045000FF00FF1414F404FC141417101F10101FD5
:10046000101F1414141F00101010F0000000001FC3
:10047000101010101F10101010F010000000FF10CE
:100480001010101010101010FF10000000FF1400CA
:1004900000FF00FF00001F10170000FC04F41414FC
:1004A0001710171414F404F40000FF00F7141414C8
:1004B00014141414F700F7141414171410101F1048
:1004C0001F141414F4141010F010F000001F101F6B
:1004D0000000001F14000000FC140000F010F010D9
:1004E00010FF10FF141414FF141010101F00000050
:1004F00000F010FFFFFFFFFFF0F0F0F0F0FFFFFF54
:100500000000000000FFFF0F0F0F0F0F38444438AA
:10051000447C2A2A3E147E02020606027E027E02E5
:1005200063554941633844443C04407E201E200604
:10053000027E020299A5E7A5991C2A492A1C4C7241
:1005400001724C304A4D4D303048784830BC625AC8
:10055000463D3E494949007E0101017E2A2A2A2A58
:100560002A44445F444440514A444040444A514034
:100570000000FF0103E080FF000008086B6B0836F5
:1005800012362436060F090F060000181800000066
:100590001010003040FF0101001F01011E00191D55
:1005A0001712003C3C3C3C0000000000F0F89C8E20
:1005B0008783878E9CF8F00000FEFF03030303038C
:1005C000070EFCF80000FEFF0303030303070EFC05
:1005D000F80000FFFF00000000000000FFFF000027
:1005E000FEFF8383838383C7EE7C380000F8FC0E14
:1005F00007030303070EFCF800003F7FE0C0808084
:10060000C0E07F3FFFFF01010101010101FFFF0089
:1006100000FFFF0C0C0C0C1C3E77E3C100007FFFB9
:10062000C0C0C0C0C0E0703F1F00001F3F70E0C0EE
:10063000C0C0E0703F1F00007FFFC1C1C1C1C1E366
:10064000773E1C00001F3F70E0C0C0C0E0703F1F3D
:10065000000000000001FFFF01000000D5F08D1434
:10066000A1C881CFD9F1AF2000080B00020202001F
:100670000009040000010202000005240010010529
:100680002401010104240206052406000107058156
:100690000310004009040100020A000000070502DF
:1006A0000240000007058302400000040309041211
:1006B000010002EF020140412336800001010203E4
:1006C0000141726475696E6F204C4C430041726445
:1006D00075696E6F204C656F6E6172646F00660A9B
:1006E00011241FBECFEFDAE0DEBFCDBF13E0A0E0E4
:1006F000B1E0E8EFFDE102C005900D92AC38B10722
:10070000D9F728E0ACE8B3E001C01D92AF30B207E2
:10071000E1F713E0C0E7D3E004C02197FE010E9497
:10072000F40ECF36D107C9F70E94830A0C94FA0E53
:100730000C940000EBEBF3E0A0E0B8E000800EBC0E
:100740008111012C1197A0FDFDCF0192B9F70DB4D5
:100750000895FC018091BA03882311F13FB7F89402
:1007600082E08093E9002091F200822F90E0181639
:10077000190614F481E090E0882339F0289844E6C3
:100780004093B9034091F1004083222339F0209136
:10079000F200211103C02BE62093E8003FBF08952B
:1007A0008FEF9FEF08952FB7F89483E08093E900CF
:1007B0009091E800892F807295FF04C09091F2001B
:1007C00080E4891B2FBF08958091B10381110DC072
:1007D00082E08093AD0384E08093AE031092B00377
:1007E0001092AF0381E08093B1038DEA93E0089506
:1007F000CF93DF931F92CDB7DEB76983DC01ED9114
:10080000FC910280F381E02D41E050E0BE016F5F7A
:100810007F4F09950F90DF91CF91089583E08093EA
:10082000E9008091F200882319F08AE38093E800C0
:1008300008950E94D30390E00895CF93DF931F9211
:10084000CDB7DEB7FC018485958597FD08C02FEFF5
:100850003FEF358724870F90DF91CF910895CE0128
:1008600001960E94A903019719F4898190E0F3CFC2
:100870008FEF9FEFF0CF0F931F93CF93DF931F92D4
:10088000CDB7DEB78C01FC018485958597FF0BC041
:10089000CE0101960E94A903019771F4898190E02D
:1008A000F80195878487F801848595850F90DF91FD
:1008B000CF911F910F9108958FEF9FEFF1CFFC0122
:1008C0008485958597FD0BC09FB7F89482E080934F
:1008D000E9008091F2009FBF90E0019608959FB7D4
:1008E000F89482E08093E9008091F2009FBF90E04D
:1008F00008954091A7035091A8032091A50330913A
:10090000A60342175307B4F49091E8009570E1F301
:100910009091E80092FD19C08093F1008091A703A7
:100920009091A80301968F739927892B19F48EEF64
:100930008093E8008091A7039091A803019690937B
:10094000A8038093A70381E0089580E00895DF92D3
:10095000EF92FF920F931F93CF93DF93D82E8A01CC
:10096000EB017B01E40EF51ECE15DF0559F0D7FE35
:1009700012C0FE0184910E94790421968111F4CF66
:100980000FEF1FEFC801DF91CF911F910F91FF90E3
:10099000EF90DF9008958881EECF0F931F93CF9350
:1009A000DF931F92CDB7DEB782E0898342E450E047
:1009B00069E676E080E80E94A7040E94E403DC0177
:1009C00012960D911C910115110589F0D801ED9138
:1009D000FC910280F381E02DBE016F5F7F4FC80163
:1009E000099597FD04C0F80100851185ECCF898138
:1009F0000F90DF91CF911F910F910895615030F0CA
:100A00002091F100FC0120830196F8CF289884E61C
:100A10008093B90308953FB7F8948091A103909112
:100A2000A203A091A303B091A40326B5A89B05C07F
:100A30002F3F19F00196A11DB11D3FBFBA2FA92F5D
:100A4000982F8827BC01CD01620F711D811D911D5A
:100A500042E0660F771F881F991F4A95D1F70895C6
:100A60008F929F92AF92BF92CF92DF92EF92FF92BE
:100A70006B017C010E940B054B015C01C114D10488
:100A8000E104F104B9F00E940B05681979098A099B
:100A90009B09683E73408105910580F321E0C21AED
:100AA000D108E108F10888EE880E83E0981EA11CA9
:100AB000B11CE4CFFF90EF90DF90CF90BF90AF904C
:100AC0009F908F9008958F929F92AF92BF92CF92F6
:100AD000DF92EF92FF920F931F93CF93DF936C01FE
:100AE0007B018A0180911201882309F45CC0809106
:100AF000BA03882309F457C08091AC0380FF05C076
:100B00008091E00082608093E000E801B12C8AEFE0
:100B1000A82E93E0892E2AE3922E209711F4BB2071
:100B2000D9F10E94D30381110AC0AA94AA20D9F155
:100B300061E070E080E090E00E943005EECF8C171D
:100B40001D0611F00CF08C2F9FB7F8948092E900ED
:100B50002091E80025FD02C09FBFDFCF282F30E0A5
:100B6000C21BD30BF701815020F041914093F1005B
:100B7000FACFE20EF31EBB2021F09092E800B12CD8
:100B8000EBCF8091E80085FDE7CF9092E800BB2491
:100B9000B394209709F3F3CF5D9884E68093AB0379
:100BA000101611063CF081E090E0F60193838283F9
:100BB00010E000E0C801DF91CF911F910F91FF90ED
:100BC000EF90DF90CF90BF90AF909F908F9008955F
:100BD000AF92BF92CF92DF92EF92FF920F931F934B
:100BE000CF93DF936C017B018B01040F151FEB0189
:100BF0005E01AE18BF08C017D10759F06991D60140
:100C0000ED91FC910190F081E02DC6010995892BB1
:100C100079F7C501DF91CF911F910F91FF90EF9070
:100C2000DF90CF90BF90AF9008952D9A0895BC01AA
:100C300090E080E00C9430058FB18095807F669BBA
:100C400088601C9B84600895AF92BF92CF92DF9220
:100C5000EF92FF920F931F93CF93DF936D3079F054
:100C6000C0919203D09193036A30B1F41092910332
:100C7000109290032896D0939303C093920381E03F
:100C800090E0DF91CF911F910F91FF90EF90DF9057
:100C9000CF90BF90AF9008954091900350919103F1
:100CA00085E0689FF0011124E455FF4F9A01C12CA3
:100CB00080E1E82EA5E070E0CA1621F0CF01019690
:100CC0007491FC0110E000E0B72FB170DB2E2038EA
:100CD0003105D0F4CE01800F911F80349105A0F42E
:100CE00061E081FD64E080FD660F82FD6295887F92
:100CF000E89ED0011124A20FF62EA554BC4F8C9172
:100D0000DD20A9F0862B8C9376950F5F1F4F08305E
:100D10001105D1F6C3942F5F3F4F86E0C812CACFAA
:100D20004A5F5F4F5093910340939003A8CFF09494
:100D30008F21E9CF90919503982329F49091960300
:100D4000982381E009F480E0089580E00C949A03F0
:100D5000089590E080E00895FC0101900020E9F7FB
:100D60003197AF01481B590BBC018BE098E00C9404
:100D7000E8058F929F92AF92BF920F931F93CF93EC
:100D8000DF93CDB7DEB7A1970FB6F894DEBF0FBEE5
:100D9000CDBF19A2423008F44AE08E010F5D1F4F0B
:100DA000842E912CB12CA12CA50194010E949E0EA1
:100DB000E62FB901CA01EA30F4F4E05DD801EE9300
:100DC0008D01232B242B252B79F790E080E01097C1
:100DD00019F0CD010E94AC06A1960FB6F894DEBFC3
:100DE0000FBECDBFDF91CF911F910F91BF90AF90FC
:100DF0009F908F900895E95CE1CFCF93DF93D0E08F
:100E0000C0E0009719F00E94AC06EC018BE692E07E
:100E10000E94AC068C0F9D1FDF91CF910895009723
:100E200011F00C94AC0690E080E00895CF92DF9230
:100E3000EF92FF92CF93DF936C01990FEE08FF08BA
:100E4000F7FE19C06DE28BE098E00E942406EC01E9
:100E500066277727CB016C197D098E099F094AE027
:100E60000E94B9068C0F9D1FDF91CF91FF90EF90EC
:100E7000DF90CF9008954AE0C701B601DF91CF918E
:100E8000FF90EF90DF90CF900C94B9060C94880EF1
:100E90001F920F920FB60F9211248F939F93809100
:100EA000E1009091E100937F9093E10083FF0FC0F8
:100EB0001092E90091E09093EB001092EC0092E325
:100EC0009093ED001092BA0398E09093F00082FFA7
:100ED00022C093E09093E9009091F200992319F0D9
:100EE0009AE39093E8009091AB03992341F090919D
:100EF000AB0391509093AB03911101C05D9A909117
:100F0000B903992341F09091B90391509093B9039B
:100F1000911101C0289A84FF18C08091E2008E7E52
:100F200081608093E2008091E1008F7E8093E100F8
:100F30008091AC038E7E80618093AC039F918F91F2
:100F40000F900FBE0F901F90189580FFF7CF8091E4
:100F5000E2008E7E80618093E2008091E1008E7ECF
:100F60008093E1008091AC038E7E8160E5CF1F927B
:100F70000F920FB60F921124CF92DF92EF92FF9251
:100F80000F931F932F933F934F935F936F937F9391
:100F90008F939F93AF93BF93EF93FF93CF93DF9381
:100FA000CDB7DEB76C97DEBFCDBF1092E900809160
:100FB000E80083FF25C068E0CE0145960E94FE044C
:100FC00082EF8093E8008D8987FF39C09091E80017
:100FD00090FFFCCF982F907609F034C19E894F89FD
:100FE000588D2F89F88C911131C0803861F580912E
:100FF000AA038093F1001092F1008EEF8093E80035
:101000006C960FB6F894DEBF0FBECDBFDF91CF91C7
:10101000FF91EF91BF91AF919F918F917F916F91D0
:101020005F914F913F912F911F910F91FF90EF9002
:10103000DF90CF900F900FBE0F901F9018959EEFEE
:101040009093E800C7CF1092F100D5CF913059F4BA
:101050008111D3CF4130510581F68091AA038D7F54
:101060008093AA03CACF933049F48111C6CF41308F
:10107000510519F68091AA038260F2CF953041F4B0
:101080008091E80080FFFCCF20682093E300B5CF7B
:10109000963009F0A9C00B8D1C8D22E01092E9005A
:1010A0001092A8031092A703F2122EC01092A6036A
:1010B0001092A5030E94CD041F8299E09983FA82C1
:1010C00091E09E8390EA98879AEF99872091A703F1
:1010D0003091A803275F3F4F3C832B838D83109271
:1010E000E9001092A8031092A7031093A60300939F
:1010F000A50349E050E0BE016F5F7F4F80E00E9492
:10110000A7040E94CD0479CF1093A6030093A503F2
:101110000E94E403DC0112960D911C91011511054A
:1011200009F451C1D801ED91FC910480F581E02DC5
:10113000BE016B5E7F4FC8010995009709F03EC163
:10114000F80100851185EACFF3E0FF120EC08F8908
:10115000882309F440C0823061F440E860E18DECFE
:1011600096E00E94330A811148CF81E28093EB0020
:1011700047CF813029F440E86BE081EC96E0F1CF75
:10118000833099F70E94E403DC011296ED90FC9005
:101190008E010F5F1F4F6801E114F10479F0D70150
:1011A000ED91FC910680F781E02DB801C70109950A
:1011B000080F111DF701E084F184EECFD8011C92D5
:1011C000F60101900020E9F73197BF016C197D0904
:1011D00040E0C601C6CF6BEA76E0FB01449150E0E7
:1011E00080E80E94A70409CF973009F4BECF983059
:1011F00021F481E08093F10000CF993009F0FDCE19
:10120000837009F0B2CFE7E4F2E081E031E096E3E9
:101210002191222371F08093E9003093EB00DF01EC
:1012200011972C912093EC009093ED008F5F873005
:1012300079F78EE78093EA001092EA008F89809315
:10124000BA03DBCE8B8D9C8D1092E9001092A8031F
:101250001092A7039093A6038093A503898D811113
:1012600092C08E899D89913A49F4813209F07DCFEF
:1012700047E050E06BE071E080E0B3CF913209F0DD
:1012800074CF833269F48F89988DB0E0A0E08093A9
:10129000070190930801A0930901B0930A01ADCE14
:1012A000803269F48091E80082FFFCCF67E08BE038
:1012B00091E00E94FE048BEF8093E8009ECE823284
:1012C00009F09BCE8F8980931201EEEFFFE78591A5
:1012D00094918B3F9C4D51F1E0E0F8E080910B013F
:1012E00090910C01A0910D01B0910E01803B9440B2
:1012F000A105B105F1F48091120180FD1AC0EE3F05
:101300008AE0F80789F587E797E7918380838091E2
:1013100060008093A90388E19BE00FB6F894A8953C
:10132000809360000FBE9093600067CEEEEFFAE00E
:10133000D5CF808191818737974709F05ECEA895F8
:10134000809160008861809360008091A903809300
:101350006000EE3F2AE0F20789F08091FE0A90914A
:10136000FF0A9183808349CE8081918187379807D6
:1013700051F29093FF0A8093FE0AC5CF1092FF0AA4
:101380001092FE0A3ACE0E94E403DC0112960D91FF
:101390001C910115110509F4E8CED801ED91FC91DD
:1013A0000190F081E02DBE016B5E7F4FC801099571
:1013B000811123CEF80100851185EBCF181619068F
:1013C0000CF41BCED2CEF1E0FF12BECE6FEA76E077
:1013D00004CF1F920F920FB60F9211242F933F93B9
:1013E0008F939F93AF93BF9380919D0390919E03A2
:1013F000A0919F03B091A00330919C0323E0230FA1
:101400002D3758F50196A11DB11D20939C038093A3
:101410009D0390939E03A0939F03B093A00380919C
:10142000A1039091A203A091A303B091A4030196FC
:10143000A11DB11D8093A1039093A203A093A303C8
:10144000B093A403BF91AF919F918F913F912F9142
:101450000F900FBE0F901F90189526E8230F02964D
:10146000A11DB11DD2CFEF92FF920F931F93CF9387
:10147000DF93F82E192FE62E042F81E0860F880FB8
:101480000E94790483E00E947904CF2DD12FEC0EC5
:10149000FD2EF11CCE15DF05B9F007FF13C0FE01CC
:1014A00084910E947904182F80E00E94790481239E
:1014B00021968111EFCFDF91CF911F910F91FF9076
:1014C000EF9008958881EDCF81E0F5CFEBEBF7E069
:1014D0001382128288EE93E0A0E0B0E084839583CB
:1014E000A683B78381E592E0918380838FEF9FEF9E
:1014F00095878487EBE0F8E01382128283E692E01E
:10150000918380830895789484B5826084BD84B586
:10151000816084BD85B5826085BD85B5816085BDEE
:1015200080916E00816080936E00109281008091A6
:10153000810082608093810080918100816080932E
:101540008100809180008160809380008091910073
:1015500082608093910080919100816080939100DE
:10156000809190008160809390008091C1008460A0
:101570008093C1008091C10082608093C1008091FE
:10158000C10081608093C1008091C300816080931D
:10159000C3008091C00082608093C0008091C2002F
:1015A00081608093C20080917A00846080937A0089
:1015B00080917A00826080937A0080917A008160C5
:1015C00080937A0080917A00806880937A001092EC
:1015D000BA031092AA031092AC038091D7008160E5
:1015E0008093D70080EA8093D80089B5806189BD57
:1015F00089B5826089BD09B400FEFDCF61E070E06D
:1016000080E090E00E9430058091D8008F7C80615E
:101610008093D8008091E000807F8093E0008091EB
:10162000E1008E7E8093E1008DE08093E200559A88
:10163000209A81EC80937C0085B1806F85B984B15C
:10164000877E84B984B1876E84B95E9A5F988AB1C7
:10165000806D8AB9769A6E9881B3806F81BB8998C4
:1016600080B38D7080BB80E58CBD81E08DBD85E051
:1016700090E00E9417065F9A85E090E00E941706AE
:101680005E985C98ECE5F6E084918EBD00000DB4A8
:1016900007FEFDCF319626E0E936F207A9F75C9AFE
:1016A00081E880936400809165008160809365008B
:1016B0000E94A5060E941C0687FF15C05C9885EA5B
:1016C0008EBD00000DB407FEFDCF5C9A2E982F98BA
:1016D0002D988091640080628093640081E083BFD4
:1016E000889513BEFCCF0E941C0682FF48C02D982F
:1016F0000E941C0684788438E1F40E94150688EC68
:1017000090E00E9417062F9882E090E00E94880ED9
:101710008F3F29F06FEF82E090E00E94900E84EFFF
:1017200091E00E9417062F9A0E941C068478843844
:10173000D9F30E941C0684718431E1F40E941506DD
:1017400088EC90E00E9417062E9882E090E00E94BC
:10175000880E882329F060E082E090E00E94900EDD
:1017600084EF91E00E9417062E9A0E941C06847155
:101770008431D9F388EC90E00E941706B4CF0E9420
:10178000150682E090E00E944607882309F459C0BC
:101790003E9A3F9A81E090E00E944607482F4470AD
:1017A000942E81FF10C041112E98C1EFDFEF08E0A9
:1017B00010E078E5872E0E941C0686FF45C02E9A11
:1017C0002F9A0E94150682E390E00E9417060E945D
:1017D0001C068111F8CF81E280930001F3E06F2EA7
:1017E000712CA8E02A2E312CB4E24B2E512CCBEBDD
:1017F000D3E001E010E08FE4E82EFF24F394992475
:101800009394812CAA24AA94BA2CE0E0CE2EE0E096
:10181000DE2E8FB7F89440919D0350919E03609106
:101820009F037091A0038FBF80918E03882309F4DA
:10183000CCC010928E03C114D10459F30E94000051
:10184000DECF3E983F98A6CF992029F0C430D1052D
:1018500011F42E9A2F9881E00E949A039E01D7FFDF
:1018600004C0222733272C1B3D0B27703327CE01C2
:10187000D7FD079663E0959587956A95E1F7D7FFC1
:1018800005C00197F801E21BF30B9F01BC0176959F
:10189000762F66277795679565547C4FF12CE12C60
:1018A0003801621A730A8E3FFFEF9F0709F43DC0AB
:1018B0008E9CD0018F9CB00D112450E040E0A455C7
:1018C000BA4F5B01E0E8AE0EB11C8F3F980791F074
:1018D000FD01E40FF51FE4916B01C40ED51EF0E08D
:1018E0002F01022E01C0440C0A94EAF7F601548835
:1018F0004528448A2115310599F0FD01E40FF51FB3
:10190000E4916501C40ED51EF0E02F01062C02C043
:10191000559447940A94E2F7F60154884528448A7E
:101920004F5F5F4F4835510581F6019660587F4FF4
:10193000EA94EF2809F045C00E94A5068FE090E0E8
:101940000E9417062196C931D10509F034CF99209C
:1019500011F02F9A2D9880E991E00E9417060E94BD
:10196000150681E090E00E94460780FF2CCF8AE0B8
:1019700090E00E9446079FEF980F9E3F08F023CF0C
:1019800022E330E0309391032093900328E330E08A
:101990003093930320939203CBE0D0E0682F8BE049
:1019A00098E00E942406CE010E9446072196C1318C
:1019B000D105A1F70E94A50688EE93E00E941706C4
:1019C00002CFEE24E394F12C6ECF80918F03242F6D
:1019D000281B822F90910001291740F48F5F8917EF
:1019E00008F029CF93BE889513BE25CF90928E0321
:1019F00040938F0380918C0390918D030196909377
:101A00008D0380938C0380919603809395030E94AD
:101A10001C068093960380E20E949A06882359F060
:101A20008091050190910601019709F45CC19093A2
:101A300006018093050180E40E949A06882359F0EC
:101A40008091050190910601019609F451C190938E
:101A500006018093050180E80E949A06882349F0D8
:101A600080919A0390919B03019690939B0380939E
:101A70009A0380E10E949A06882349F080919A0394
:101A800090919B03019790939B0380939A0380917D
:101A90009A0390919B03803591406CF080910501F1
:101AA0009091060110929B0310929A0301969093D5
:101AB00006018093050180919A0390919B0397FF03
:101AC0000DC08091050190910601F0929B03E09278
:101AD0009A030197909306018093050188E00E9484
:101AE0009A06882341F0809199038F5F833008F034
:101AF00004C1809399038091050190910601B3017F
:101B00000E94CC0E9C0180939403E0919A03F09183
:101B10009B03CF016CE170E00E94CC0E482F6F5FF9
:101B20006093040181E0840F8093030167E00E94C9
:101B3000C00E9F5F90930201CF010296B1010E94F7
:101B4000CC0E80930101409398033327D901AD5EF9
:101B5000BE4F8C918E0F9F2F911DB2010E94CC0E13
:101B600080939703882DFE0181118FEF00248193CC
:101B70008193819381930394D1F7109293031092F0
:101B8000920310929103109290038EE692E00E94CD
:101B9000FD066091040170E090E080E04AE00E9460
:101BA000B90681E892E00E940F076091030170E09E
:101BB00090E080E04AE00E94B90681E892E00E944D
:101BC0000F078091050190910601181619060CF077
:101BD00097C00E94160785E892E00E94FD06E091FA
:101BE0000201F0E0EE0FFF1FEA5CFD4F8081918162
:101BF0000E94FD068BE692E00E94AC06809199035C
:101C0000811122C08DE892E00E94FD0686E992E0F3
:101C10000E940F07E0919803F0E0EE0FFF1FE250E3
:101C2000FE4F808191810E94FD0680EA92E00E9431
:101C30000F07E0919803F0E0EE0FFF1FEA53FE4F0D
:101C4000808191810E940F0780919903813011F565
:101C500087EA92E00E94FD0686E992E00E940F0763
:101C6000E0919703F0E0EE0FFF1FE258FE4F8081F6
:101C700091810E94FD0680EA92E00E940F07E091A8
:101C80009703F0E0EE0FFF1FEA5CFE4F8081918129
:101C90000E940F0780919903823011F580EB92E04A
:101CA0000E94FD0686E992E00E940F07E091010183
:101CB000F0E0EE0FFF1FEA5DFE4F808191810E94F0
:101CC000FD0680EA92E00E940F07E0910101F0E03A
:101CD000EE0FFF1FEA5EFE4F808191810E940F0789
:101CE0000E94A506A8CDB0920601A0920501A3CE40
:101CF0001093060100930501AECE10929903FBCE1E
:101D00009195819591090E94160789E892E065CF27
:101D1000F999FECF92BD81BDF89A992780B50895B3
:101D2000262FF999FECF1FBA92BD81BD20BD0FB6F7
:101D3000F894FA9AF99A0FBE01960895A1E21A2E24
:101D4000AA1BBB1BFD010DC0AA1FBB1FEE1FFF1F5F
:101D5000A217B307E407F50720F0A21BB30BE40BAF
:101D6000F50B661F771F881F991F1A9469F76095F6
:101D70007095809590959B01AC01BD01CF010895B0
:101D8000991B79E004C0991F961708F0961B881FCD
:101D90007A95C9F78095089597FB072E16F400945D
:101DA00007D077FD09D00E94E00E07FC05D03EF475
:101DB000909581959F4F0895709561957F4F0895F7
:101DC000AA1BBB1B51E107C0AA1FBB1FA617B70761
:101DD00010F0A61BB70B881F991F5A95A9F780957D
:101DE0009095BC01CD010895EE0FFF1F0590F49171
:081DF000E02D0994F894FFCFE7
:101DF80010020101018201FFFFFFFF00E100000066
:101E0800000000101C04B802BC02CC02DA02E9028D
:101E1800EE02FD020A031A031E031E03250325030F
:101E28002A032A031A03B802BC02BC02BC02BC0281
:101E3800BC02BC02BC02BC02CC02DA02DA02DA0240
:101E4800DA02DA02DA02DA02DA02E902EE02EE0273
:101E5800EE02EE02EE02EE02EE02EE02FD020A03CE
:101E68000A030A030A030A030A030A030A031A03F2
:101E78001A031A031A031A031E031E031E031E0362
:101E88001E031E031E031E031E032503250325032D
:101E98002503250325032503250325032A032A03F0
:101EA8002A032A032A032A032A032A032A031A03D2
:101EB8001A031A031A03B802BC02BC02BC02BC0211
:101EC800BC02BC02CC02DA02DA02DA02DA02DA0274
:101ED800DA02E902EE02EE02EE02EE02EE02EE0293
:101EE800FD020A030A030A030A030A030A031A0380
:101EF8001A031A031A031E031E031E031E031E03DE
:101F08001E031E0325032503250325032503250397
:101F180025032A032A032A032A032A032A032A0356
:101F28001A031A031A036D0231033E034B035803C5
:101F3800650372037F0300C1808100000000000078
:101F480000F803630519040E045F041D043B040034
:101F58000000002406E805A906A8060D0A004B7231
:101F6800796E6E204D6F6F6E20547261636B65726F
:101F780000202D200020414300205043004C756E66
:101F880069746172690053616E6374696F6E3A00B7
:101F980050686173653A00536F6C696E61726900CD
:101FA8004E756974617269004E657700576178698A
:101FB8006E67204372657363656E74004669727359
:101FC80074205175617274657200576178696E6723
:101FD80020476962626F75730046756C6C005761C3
:101FE8006E696E6720476962626F7573004C617332
:101FF8007420517561727465720057616E696E67FD
:10200800204372657363656E74004C6F7700576187
:1020180078696E6700486967680057616E696E671E
:102028000047617465776179202020202000427282
:1020380069676874204579652020004E696768746F
:1020480073204579652020004465616420457965E1
:102058002020202000447265616D2044616E636514
:10206800200057696E676564205472616465005783
:0C2078006F726C642054726565202000BB
:00000001FF
